{
    "_format": "hh-sol-artifact-1",
    "contractName": "PropertyRegistry",
    "sourceName": "contracts/PropertyRegistry.sol",
    "abi": [
        {
            "inputs": [],
            "stateMutability": "nonpayable",
            "type": "constructor"
        },
        {
            "inputs": [
                {
                    "internalType": "address",
                    "name": "sender",
                    "type": "address"
                },
                {
                    "internalType": "uint256",
                    "name": "tokenId",
                    "type": "uint256"
                },
                {
                    "internalType": "address",
                    "name": "owner",
                    "type": "address"
                }
            ],
            "name": "ERC721IncorrectOwner",
            "type": "error"
        },
        {
            "inputs": [
                {
                    "internalType": "address",
                    "name": "operator",
                    "type": "address"
                },
                {
                    "internalType": "uint256",
                    "name": "tokenId",
                    "type": "uint256"
                }
            ],
            "name": "ERC721InsufficientApproval",
            "type": "error"
        },
        {
            "inputs": [
                {
                    "internalType": "address",
                    "name": "approver",
                    "type": "address"
                }
            ],
            "name": "ERC721InvalidApprover",
            "type": "error"
        },
        {
            "inputs": [
                {
                    "internalType": "address",
                    "name": "operator",
                    "type": "address"
                }
            ],
            "name": "ERC721InvalidOperator",
            "type": "error"
        },
        {
            "inputs": [
                {
                    "internalType": "address",
                    "name": "owner",
                    "type": "address"
                }
            ],
            "name": "ERC721InvalidOwner",
            "type": "error"
        },
        {
            "inputs": [
                {
                    "internalType": "address",
                    "name": "receiver",
                    "type": "address"
                }
            ],
            "name": "ERC721InvalidReceiver",
            "type": "error"
        },
        {
            "inputs": [
                {
                    "internalType": "address",
                    "name": "sender",
                    "type": "address"
                }
            ],
            "name": "ERC721InvalidSender",
            "type": "error"
        },
        {
            "inputs": [
                {
                    "internalType": "uint256",
                    "name": "tokenId",
                    "type": "uint256"
                }
            ],
            "name": "ERC721NonexistentToken",
            "type": "error"
        },
        {
            "inputs": [
                {
                    "internalType": "address",
                    "name": "owner",
                    "type": "address"
                }
            ],
            "name": "OwnableInvalidOwner",
            "type": "error"
        },
        {
            "inputs": [
                {
                    "internalType": "address",
                    "name": "account",
                    "type": "address"
                }
            ],
            "name": "OwnableUnauthorizedAccount",
            "type": "error"
        },
        {
            "anonymous": false,
            "inputs": [
                {
                    "indexed": true,
                    "internalType": "address",
                    "name": "owner",
                    "type": "address"
                },
                {
                    "indexed": true,
                    "internalType": "address",
                    "name": "approved",
                    "type": "address"
                },
                {
                    "indexed": true,
                    "internalType": "uint256",
                    "name": "tokenId",
                    "type": "uint256"
                }
            ],
            "name": "Approval",
            "type": "event"
        },
        {
            "anonymous": false,
            "inputs": [
                {
                    "indexed": true,
                    "internalType": "address",
                    "name": "owner",
                    "type": "address"
                },
                {
                    "indexed": true,
                    "internalType": "address",
                    "name": "operator",
                    "type": "address"
                },
                {
                    "indexed": false,
                    "internalType": "bool",
                    "name": "approved",
                    "type": "bool"
                }
            ],
            "name": "ApprovalForAll",
            "type": "event"
        },
        {
            "anonymous": false,
            "inputs": [
                {
                    "indexed": true,
                    "internalType": "address",
                    "name": "previousOwner",
                    "type": "address"
                },
                {
                    "indexed": true,
                    "internalType": "address",
                    "name": "newOwner",
                    "type": "address"
                }
            ],
            "name": "OwnershipTransferred",
            "type": "event"
        },
        {
            "anonymous": false,
            "inputs": [
                {
                    "indexed": true,
                    "internalType": "uint256",
                    "name": "tokenId",
                    "type": "uint256"
                },
                {
                    "indexed": true,
                    "internalType": "address",
                    "name": "owner",
                    "type": "address"
                },
                {
                    "indexed": false,
                    "internalType": "string",
                    "name": "ipfsHash",
                    "type": "string"
                },
                {
                    "indexed": false,
                    "internalType": "uint256",
                    "name": "timestamp",
                    "type": "uint256"
                }
            ],
            "name": "PropertyRegistered",
            "type": "event"
        },
        {
            "anonymous": false,
            "inputs": [
                {
                    "indexed": true,
                    "internalType": "uint256",
                    "name": "tokenId",
                    "type": "uint256"
                },
                {
                    "indexed": true,
                    "internalType": "address",
                    "name": "from",
                    "type": "address"
                },
                {
                    "indexed": true,
                    "internalType": "address",
                    "name": "to",
                    "type": "address"
                },
                {
                    "indexed": false,
                    "internalType": "uint256",
                    "name": "timestamp",
                    "type": "uint256"
                }
            ],
            "name": "PropertyTransferred",
            "type": "event"
        },
        {
            "anonymous": false,
            "inputs": [
                {
                    "indexed": true,
                    "internalType": "address",
                    "name": "from",
                    "type": "address"
                },
                {
                    "indexed": true,
                    "internalType": "address",
                    "name": "to",
                    "type": "address"
                },
                {
                    "indexed": true,
                    "internalType": "uint256",
                    "name": "tokenId",
                    "type": "uint256"
                }
            ],
            "name": "Transfer",
            "type": "event"
        },
        {
            "inputs": [
                {
                    "internalType": "address",
                    "name": "to",
                    "type": "address"
                },
                {
                    "internalType": "uint256",
                    "name": "tokenId",
                    "type": "uint256"
                }
            ],
            "name": "approve",
            "outputs": [],
            "stateMutability": "nonpayable",
            "type": "function"
        },
        {
            "inputs": [
                {
                    "internalType": "address",
                    "name": "owner",
                    "type": "address"
                }
            ],
            "name": "balanceOf",
            "outputs": [
                {
                    "internalType": "uint256",
                    "name": "",
                    "type": "uint256"
                }
            ],
            "stateMutability": "view",
            "type": "function"
        },
        {
            "inputs": [
                {
                    "internalType": "uint256",
                    "name": "tokenId",
                    "type": "uint256"
                }
            ],
            "name": "getApproved",
            "outputs": [
                {
                    "internalType": "address",
                    "name": "",
                    "type": "address"
                }
            ],
            "stateMutability": "view",
            "type": "function"
        },
        {
            "inputs": [
                {
                    "internalType": "uint256",
                    "name": "tokenId",
                    "type": "uint256"
                }
            ],
            "name": "getPropertyDetails",
            "outputs": [
                {
                    "components": [
                        {
                            "internalType": "string",
                            "name": "ipfsHash",
                            "type": "string"
                        },
                        {
                            "internalType": "address",
                            "name": "owner",
                            "type": "address"
                        },
                        {
                            "internalType": "uint256",
                            "name": "timestamp",
                            "type": "uint256"
                        }
                    ],
                    "internalType": "struct PropertyRegistry.Property",
                    "name": "",
                    "type": "tuple"
                }
            ],
            "stateMutability": "view",
            "type": "function"
        },
        {
            "inputs": [
                {
                    "internalType": "address",
                    "name": "owner",
                    "type": "address"
                },
                {
                    "internalType": "address",
                    "name": "operator",
                    "type": "address"
                }
            ],
            "name": "isApprovedForAll",
            "outputs": [
                {
                    "internalType": "bool",
                    "name": "",
                    "type": "bool"
                }
            ],
            "stateMutability": "view",
            "type": "function"
        },
        {
            "inputs": [],
            "name": "name",
            "outputs": [
                {
                    "internalType": "string",
                    "name": "",
                    "type": "string"
                }
            ],
            "stateMutability": "view",
            "type": "function"
        },
        {
            "inputs": [],
            "name": "owner",
            "outputs": [
                {
                    "internalType": "address",
                    "name": "",
                    "type": "address"
                }
            ],
            "stateMutability": "view",
            "type": "function"
        },
        {
            "inputs": [
                {
                    "internalType": "uint256",
                    "name": "tokenId",
                    "type": "uint256"
                }
            ],
            "name": "ownerOf",
            "outputs": [
                {
                    "internalType": "address",
                    "name": "",
                    "type": "address"
                }
            ],
            "stateMutability": "view",
            "type": "function"
        },
        {
            "inputs": [
                {
                    "internalType": "uint256",
                    "name": "",
                    "type": "uint256"
                }
            ],
            "name": "properties",
            "outputs": [
                {
                    "internalType": "string",
                    "name": "ipfsHash",
                    "type": "string"
                },
                {
                    "internalType": "address",
                    "name": "owner",
                    "type": "address"
                },
                {
                    "internalType": "uint256",
                    "name": "timestamp",
                    "type": "uint256"
                }
            ],
            "stateMutability": "view",
            "type": "function"
        },
        {
            "inputs": [
                {
                    "internalType": "string",
                    "name": "ipfsHash",
                    "type": "string"
                },
                {
                    "internalType": "address",
                    "name": "owner",
                    "type": "address"
                }
            ],
            "name": "registerProperty",
            "outputs": [
                {
                    "internalType": "uint256",
                    "name": "",
                    "type": "uint256"
                }
            ],
            "stateMutability": "nonpayable",
            "type": "function"
        },
        {
            "inputs": [],
            "name": "renounceOwnership",
            "outputs": [],
            "stateMutability": "nonpayable",
            "type": "function"
        },
        {
            "inputs": [
                {
                    "internalType": "address",
                    "name": "from",
                    "type": "address"
                },
                {
                    "internalType": "address",
                    "name": "to",
                    "type": "address"
                },
                {
                    "internalType": "uint256",
                    "name": "tokenId",
                    "type": "uint256"
                }
            ],
            "name": "safeTransferFrom",
            "outputs": [],
            "stateMutability": "nonpayable",
            "type": "function"
        },
        {
            "inputs": [
                {
                    "internalType": "address",
                    "name": "from",
                    "type": "address"
                },
                {
                    "internalType": "address",
                    "name": "to",
                    "type": "address"
                },
                {
                    "internalType": "uint256",
                    "name": "tokenId",
                    "type": "uint256"
                },
                {
                    "internalType": "bytes",
                    "name": "data",
                    "type": "bytes"
                }
            ],
            "name": "safeTransferFrom",
            "outputs": [],
            "stateMutability": "nonpayable",
            "type": "function"
        },
        {
            "inputs": [
                {
                    "internalType": "address",
                    "name": "operator",
                    "type": "address"
                },
                {
                    "internalType": "bool",
                    "name": "approved",
                    "type": "bool"
                }
            ],
            "name": "setApprovalForAll",
            "outputs": [],
            "stateMutability": "nonpayable",
            "type": "function"
        },
        {
            "inputs": [
                {
                    "internalType": "bytes4",
                    "name": "interfaceId",
                    "type": "bytes4"
                }
            ],
            "name": "supportsInterface",
            "outputs": [
                {
                    "internalType": "bool",
                    "name": "",
                    "type": "bool"
                }
            ],
            "stateMutability": "view",
            "type": "function"
        },
        {
            "inputs": [],
            "name": "symbol",
            "outputs": [
                {
                    "internalType": "string",
                    "name": "",
                    "type": "string"
                }
            ],
            "stateMutability": "view",
            "type": "function"
        },
        {
            "inputs": [],
            "name": "tokenIdCounter",
            "outputs": [
                {
                    "internalType": "uint256",
                    "name": "",
                    "type": "uint256"
                }
            ],
            "stateMutability": "view",
            "type": "function"
        },
        {
            "inputs": [
                {
                    "internalType": "uint256",
                    "name": "tokenId",
                    "type": "uint256"
                }
            ],
            "name": "tokenURI",
            "outputs": [
                {
                    "internalType": "string",
                    "name": "",
                    "type": "string"
                }
            ],
            "stateMutability": "view",
            "type": "function"
        },
        {
            "inputs": [
                {
                    "internalType": "address",
                    "name": "from",
                    "type": "address"
                },
                {
                    "internalType": "address",
                    "name": "to",
                    "type": "address"
                },
                {
                    "internalType": "uint256",
                    "name": "tokenId",
                    "type": "uint256"
                }
            ],
            "name": "transferFrom",
            "outputs": [],
            "stateMutability": "nonpayable",
            "type": "function"
        },
        {
            "inputs": [
                {
                    "internalType": "address",
                    "name": "newOwner",
                    "type": "address"
                }
            ],
            "name": "transferOwnership",
            "outputs": [],
            "stateMutability": "nonpayable",
            "type": "function"
        },
        {
            "inputs": [
                {
                    "internalType": "address",
                    "name": "to",
                    "type": "address"
                },
                {
                    "internalType": "uint256",
                    "name": "tokenId",
                    "type": "uint256"
                }
            ],
            "name": "transferProperty",
            "outputs": [],
            "stateMutability": "nonpayable",
            "type": "function"
        }
    ],
    "bytecode": "0x60806040523480156200001157600080fd5b50336040518060400160405280601381526020017f50646650726f70657274795265676973747279000000000000000000000000008152506040518060400160405280600781526020017f50444650524f5000000000000000000000000000000000000000000000000000815250816000908162000090919062000472565b508060019081620000a2919062000472565b505050600073ffffffffffffffffffffffffffffffffffffffff168173ffffffffffffffffffffffffffffffffffffffff16036200011a5760006040517f1e4fbdf70000000000000000000000000000000000000000000000000000000081526004016200011191906200059e565b60405180910390fd5b6200012b816200013260201b60201c565b50620005bb565b6000600660009054906101000a900473ffffffffffffffffffffffffffffffffffffffff16905081600660006101000a81548173ffffffffffffffffffffffffffffffffffffffff021916908373ffffffffffffffffffffffffffffffffffffffff1602179055508173ffffffffffffffffffffffffffffffffffffffff168173ffffffffffffffffffffffffffffffffffffffff167f8be0079c531659141344cd1fd0a4f28419497f9722a3daafe3b4186f6b6457e060405160405180910390a35050565b600081519050919050565b7f4e487b7100000000000000000000000000000000000000000000000000000000600052604160045260246000fd5b7f4e487b7100000000000000000000000000000000000000000000000000000000600052602260045260246000fd5b600060028204905060018216806200027a57607f821691505b60208210810362000290576200028f62000232565b5b50919050565b60008190508160005260206000209050919050565b60006020601f8301049050919050565b600082821b905092915050565b600060088302620002fa7fffffffffffffffffffffffffffffffffffffffffffffffffffffffffffffffff82620002bb565b620003068683620002bb565b95508019841693508086168417925050509392505050565b6000819050919050565b6000819050919050565b6000620003536200034d62000347846200031e565b62000328565b6200031e565b9050919050565b6000819050919050565b6200036f8362000332565b620003876200037e826200035a565b848454620002c8565b825550505050565b600090565b6200039e6200038f565b620003ab81848462000364565b505050565b5b81811015620003d357620003c760008262000394565b600181019050620003b1565b5050565b601f8211156200042257620003ec8162000296565b620003f784620002ab565b8101602085101562000407578190505b6200041f6200041685620002ab565b830182620003b0565b50505b505050565b600082821c905092915050565b6000620004476000198460080262000427565b1980831691505092915050565b600062000462838362000434565b9150826002028217905092915050565b6200047d82620001f8565b67ffffffffffffffff81111562000499576200049862000203565b5b620004a5825462000261565b620004b2828285620003d7565b600060209050601f831160018114620004ea5760008415620004d5578287015190505b620004e1858262000454565b86555062000551565b601f198416620004fa8662000296565b60005b828110156200052457848901518255600182019150602085019450602081019050620004fd565b8683101562000544578489015162000540601f89168262000434565b8355505b6001600288020188555050505b505050505050565b600073ffffffffffffffffffffffffffffffffffffffff82169050919050565b6000620005868262000559565b9050919050565b620005988162000579565b82525050565b6000602082019050620005b560008301846200058d565b92915050565b612db480620005cb6000396000f3fe608060405234801561001057600080fd5b50600436106101375760003560e01c80638da5cb5b116100b8578063bd963f121161007c578063bd963f121461033a578063c87b56dd1461036a578063e985e9c51461039a578063f2fde38b146103ca578063f644c318146103e6578063f7b108081461040257610137565b80638da5cb5b146102a857806395d89b41146102c657806398bdf6f5146102e4578063a22cb46514610302578063b88d4fde1461031e57610137565b806323b872dd116100ff57806323b872dd1461020657806342842e0e146102225780636352211e1461023e57806370a082311461026e578063715018a61461029e57610137565b806301ffc9a71461013c57806306fdde031461016c578063081812fc1461018a578063095ea7b3146101ba578063126dbe43146101d6575b600080fd5b61015660048036038101906101519190611fec565b610434565b6040516101639190612034565b60405180910390f35b610174610516565b60405161018191906120df565b60405180910390f35b6101a4600480360381019061019f9190612137565b6105a8565b6040516101b191906121a5565b60405180910390f35b6101d460048036038101906101cf91906121ec565b6105c4565b005b6101f060048036038101906101eb9190612137565b6105da565b6040516101fd91906122e4565b60405180910390f35b610220600480360381019061021b9190612306565b61074a565b005b61023c60048036038101906102379190612306565b61084c565b005b61025860048036038101906102539190612137565b61086c565b60405161026591906121a5565b60405180910390f35b61028860048036038101906102839190612359565b61087e565b6040516102959190612395565b60405180910390f35b6102a6610938565b005b6102b061094c565b6040516102bd91906121a5565b60405180910390f35b6102ce610976565b6040516102db91906120df565b60405180910390f35b6102ec610a08565b6040516102f99190612395565b60405180910390f35b61031c600480360381019061031791906123dc565b610a0e565b005b61033860048036038101906103339190612551565b610a24565b005b610354600480360381019061034f9190612675565b610a49565b6040516103619190612395565b60405180910390f35b610384600480360381019061037f9190612137565b610b7d565b60405161039191906120df565b60405180910390f35b6103b460048036038101906103af91906126d1565b610be6565b6040516103c19190612034565b60405180910390f35b6103e460048036038101906103df9190612359565b610c7a565b005b61040060048036038101906103fb91906121ec565b610d00565b005b61041c60048036038101906104179190612137565b610e40565b60405161042b93929190612711565b60405180910390f35b60007f80ac58cd000000000000000000000000000000000000000000000000000000007bffffffffffffffffffffffffffffffffffffffffffffffffffffffff1916827bffffffffffffffffffffffffffffffffffffffffffffffffffffffff191614806104ff57507f5b5e139f000000000000000000000000000000000000000000000000000000007bffffffffffffffffffffffffffffffffffffffffffffffffffffffff1916827bffffffffffffffffffffffffffffffffffffffffffffffffffffffff1916145b8061050f575061050e82610f12565b5b9050919050565b6060600080546105259061277e565b80601f01602080910402602001604051908101604052809291908181526020018280546105519061277e565b801561059e5780601f106105735761010080835404028352916020019161059e565b820191906000526020600020905b81548152906001019060200180831161058157829003601f168201915b5050505050905090565b60006105b382610f7c565b506105bd82611004565b9050919050565b6105d682826105d1611041565b611049565b5050565b6105e2611f49565b6000821180156105f457506007548211155b610633576040517f08c379a000000000000000000000000000000000000000000000000000000000815260040161062a906127fb565b60405180910390fd5b600860008381526020019081526020016000206040518060600160405290816000820180546106619061277e565b80601f016020809104026020016040519081016040528092919081815260200182805461068d9061277e565b80156106da5780601f106106af576101008083540402835291602001916106da565b820191906000526020600020905b8154815290600101906020018083116106bd57829003601f168201915b505050505081526020016001820160009054906101000a900473ffffffffffffffffffffffffffffffffffffffff1673ffffffffffffffffffffffffffffffffffffffff1673ffffffffffffffffffffffffffffffffffffffff1681526020016002820154815250509050919050565b600073ffffffffffffffffffffffffffffffffffffffff168273ffffffffffffffffffffffffffffffffffffffff16036107bc5760006040517f64a0ae920000000000000000000000000000000000000000000000000000000081526004016107b391906121a5565b60405180910390fd5b60006107d083836107cb611041565b61105b565b90508373ffffffffffffffffffffffffffffffffffffffff168173ffffffffffffffffffffffffffffffffffffffff1614610846578382826040517f64283d7b00000000000000000000000000000000000000000000000000000000815260040161083d9392919061281b565b60405180910390fd5b50505050565b61086783838360405180602001604052806000815250610a24565b505050565b600061087782610f7c565b9050919050565b60008073ffffffffffffffffffffffffffffffffffffffff168273ffffffffffffffffffffffffffffffffffffffff16036108f15760006040517f89c62b640000000000000000000000000000000000000000000000000000000081526004016108e891906121a5565b60405180910390fd5b600360008373ffffffffffffffffffffffffffffffffffffffff1673ffffffffffffffffffffffffffffffffffffffff168152602001908152602001600020549050919050565b610940611275565b61094a60006112fc565b565b6000600660009054906101000a900473ffffffffffffffffffffffffffffffffffffffff16905090565b6060600180546109859061277e565b80601f01602080910402602001604051908101604052809291908181526020018280546109b19061277e565b80156109fe5780601f106109d3576101008083540402835291602001916109fe565b820191906000526020600020905b8154815290600101906020018083116109e157829003601f168201915b5050505050905090565b60075481565b610a20610a19611041565b83836113c2565b5050565b610a2f84848461074a565b610a43610a3a611041565b85858585611531565b50505050565b600060076000815480929190610a5e90612881565b919050555060006007549050610a7483826116e2565b60405180606001604052808581526020018473ffffffffffffffffffffffffffffffffffffffff16815260200142815250600860008381526020019081526020016000206000820151816000019081610acd9190612a75565b5060208201518160010160006101000a81548173ffffffffffffffffffffffffffffffffffffffff021916908373ffffffffffffffffffffffffffffffffffffffff160217905550604082015181600201559050508273ffffffffffffffffffffffffffffffffffffffff16817f4a94c8d5fab40a5edfd34ed099a279029ee376bf6a571684e0cffd8e00216dbc8642604051610b6b929190612b47565b60405180910390a38091505092915050565b6060610b8882610f7c565b506000610b93611700565b90506000815111610bb35760405180602001604052806000815250610bde565b80610bbd84611717565b604051602001610bce929190612bb3565b6040516020818303038152906040525b915050919050565b6000600560008473ffffffffffffffffffffffffffffffffffffffff1673ffffffffffffffffffffffffffffffffffffffff16815260200190815260200160002060008373ffffffffffffffffffffffffffffffffffffffff1673ffffffffffffffffffffffffffffffffffffffff16815260200190815260200160002060009054906101000a900460ff16905092915050565b610c82611275565b600073ffffffffffffffffffffffffffffffffffffffff168173ffffffffffffffffffffffffffffffffffffffff1603610cf45760006040517f1e4fbdf7000000000000000000000000000000000000000000000000000000008152600401610ceb91906121a5565b60405180910390fd5b610cfd816112fc565b50565b3373ffffffffffffffffffffffffffffffffffffffff16610d208261086c565b73ffffffffffffffffffffffffffffffffffffffff1614610d76576040517f08c379a0000000000000000000000000000000000000000000000000000000008152600401610d6d90612c23565b60405180910390fd5b610d813383836117e5565b816008600083815260200190815260200160002060010160006101000a81548173ffffffffffffffffffffffffffffffffffffffff021916908373ffffffffffffffffffffffffffffffffffffffff1602179055508173ffffffffffffffffffffffffffffffffffffffff163373ffffffffffffffffffffffffffffffffffffffff16827fa57b4707b863fa4d85ff792987d8e13ff99ac4c4f237969e628682fbe257dcb742604051610e349190612395565b60405180910390a45050565b6008602052806000526040600020600091509050806000018054610e639061277e565b80601f0160208091040260200160405190810160405280929190818152602001828054610e8f9061277e565b8015610edc5780601f10610eb157610100808354040283529160200191610edc565b820191906000526020600020905b815481529060010190602001808311610ebf57829003601f168201915b5050505050908060010160009054906101000a900473ffffffffffffffffffffffffffffffffffffffff16908060020154905083565b60007f01ffc9a7000000000000000000000000000000000000000000000000000000007bffffffffffffffffffffffffffffffffffffffffffffffffffffffff1916827bffffffffffffffffffffffffffffffffffffffffffffffffffffffff1916149050919050565b600080610f8883611952565b9050600073ffffffffffffffffffffffffffffffffffffffff168173ffffffffffffffffffffffffffffffffffffffff1603610ffb57826040517f7e273289000000000000000000000000000000000000000000000000000000008152600401610ff29190612395565b60405180910390fd5b80915050919050565b60006004600083815260200190815260200160002060009054906101000a900473ffffffffffffffffffffffffffffffffffffffff169050919050565b600033905090565b611056838383600161198f565b505050565b60008061106784611952565b9050600073ffffffffffffffffffffffffffffffffffffffff168373ffffffffffffffffffffffffffffffffffffffff16146110a9576110a8818486611b54565b5b600073ffffffffffffffffffffffffffffffffffffffff168173ffffffffffffffffffffffffffffffffffffffff161461113a576110eb60008560008061198f565b6001600360008373ffffffffffffffffffffffffffffffffffffffff1673ffffffffffffffffffffffffffffffffffffffff168152602001908152602001600020600082825403925050819055505b600073ffffffffffffffffffffffffffffffffffffffff168573ffffffffffffffffffffffffffffffffffffffff16146111bd576001600360008773ffffffffffffffffffffffffffffffffffffffff1673ffffffffffffffffffffffffffffffffffffffff168152602001908152602001600020600082825401925050819055505b846002600086815260200190815260200160002060006101000a81548173ffffffffffffffffffffffffffffffffffffffff021916908373ffffffffffffffffffffffffffffffffffffffff160217905550838573ffffffffffffffffffffffffffffffffffffffff168273ffffffffffffffffffffffffffffffffffffffff167fddf252ad1be2c89b69c2b068fc378daa952ba7f163c4a11628f55a4df523b3ef60405160405180910390a4809150509392505050565b61127d611041565b73ffffffffffffffffffffffffffffffffffffffff1661129b61094c565b73ffffffffffffffffffffffffffffffffffffffff16146112fa576112be611041565b6040517f118cdaa70000000000000000000000000000000000000000000000000000000081526004016112f191906121a5565b60405180910390fd5b565b6000600660009054906101000a900473ffffffffffffffffffffffffffffffffffffffff16905081600660006101000a81548173ffffffffffffffffffffffffffffffffffffffff021916908373ffffffffffffffffffffffffffffffffffffffff1602179055508173ffffffffffffffffffffffffffffffffffffffff168173ffffffffffffffffffffffffffffffffffffffff167f8be0079c531659141344cd1fd0a4f28419497f9722a3daafe3b4186f6b6457e060405160405180910390a35050565b600073ffffffffffffffffffffffffffffffffffffffff168273ffffffffffffffffffffffffffffffffffffffff160361143357816040517f5b08ba1800000000000000000000000000000000000000000000000000000000815260040161142a91906121a5565b60405180910390fd5b80600560008573ffffffffffffffffffffffffffffffffffffffff1673ffffffffffffffffffffffffffffffffffffffff16815260200190815260200160002060008473ffffffffffffffffffffffffffffffffffffffff1673ffffffffffffffffffffffffffffffffffffffff16815260200190815260200160002060006101000a81548160ff0219169083151502179055508173ffffffffffffffffffffffffffffffffffffffff168373ffffffffffffffffffffffffffffffffffffffff167f17307eab39ab6107e8899845ad3d59bd9653f200f220920489ca2b5937696c31836040516115249190612034565b60405180910390a3505050565b60008373ffffffffffffffffffffffffffffffffffffffff163b11156116db578273ffffffffffffffffffffffffffffffffffffffff1663150b7a02868685856040518563ffffffff1660e01b81526004016115909493929190612c98565b6020604051808303816000875af19250505080156115cc57506040513d601f19601f820116820180604052508101906115c99190612cf9565b60015b611650573d80600081146115fc576040519150601f19603f3d011682016040523d82523d6000602084013e611601565b606091505b50600081510361164857836040517f64a0ae9200000000000000000000000000000000000000000000000000000000815260040161163f91906121a5565b60405180910390fd5b805181602001fd5b63150b7a0260e01b7bffffffffffffffffffffffffffffffffffffffffffffffffffffffff1916817bffffffffffffffffffffffffffffffffffffffffffffffffffffffff1916146116d957836040517f64a0ae920000000000000000000000000000000000000000000000000000000081526004016116d091906121a5565b60405180910390fd5b505b5050505050565b6116fc828260405180602001604052806000815250611c18565b5050565b606060405180602001604052806000815250905090565b60606000600161172684611c3c565b01905060008167ffffffffffffffff81111561174557611744612426565b5b6040519080825280601f01601f1916602001820160405280156117775781602001600182028036833780820191505090505b509050600082602001820190505b6001156117da578080600190039150507f3031323334353637383961626364656600000000000000000000000000000000600a86061a8153600a85816117ce576117cd612d26565b5b04945060008503611785575b819350505050919050565b600073ffffffffffffffffffffffffffffffffffffffff168273ffffffffffffffffffffffffffffffffffffffff16036118575760006040517f64a0ae9200000000000000000000000000000000000000000000000000000000815260040161184e91906121a5565b60405180910390fd5b60006118658383600061105b565b9050600073ffffffffffffffffffffffffffffffffffffffff168173ffffffffffffffffffffffffffffffffffffffff16036118d857816040517f7e2732890000000000000000000000000000000000000000000000000000000081526004016118cf9190612395565b60405180910390fd5b8373ffffffffffffffffffffffffffffffffffffffff168173ffffffffffffffffffffffffffffffffffffffff161461194c578382826040517f64283d7b0000000000000000000000000000000000000000000000000000000081526004016119439392919061281b565b60405180910390fd5b50505050565b60006002600083815260200190815260200160002060009054906101000a900473ffffffffffffffffffffffffffffffffffffffff169050919050565b80806119c85750600073ffffffffffffffffffffffffffffffffffffffff168273ffffffffffffffffffffffffffffffffffffffff1614155b15611afc5760006119d884610f7c565b9050600073ffffffffffffffffffffffffffffffffffffffff168373ffffffffffffffffffffffffffffffffffffffff1614158015611a4357508273ffffffffffffffffffffffffffffffffffffffff168173ffffffffffffffffffffffffffffffffffffffff1614155b8015611a565750611a548184610be6565b155b15611a9857826040517fa9fbf51f000000000000000000000000000000000000000000000000000000008152600401611a8f91906121a5565b60405180910390fd5b8115611afa57838573ffffffffffffffffffffffffffffffffffffffff168273ffffffffffffffffffffffffffffffffffffffff167f8c5be1e5ebec7d5bd14f71427d1e84f3dd0314c0f7b2291e5b200ac8c7c3b92560405160405180910390a45b505b836004600085815260200190815260200160002060006101000a81548173ffffffffffffffffffffffffffffffffffffffff021916908373ffffffffffffffffffffffffffffffffffffffff16021790555050505050565b611b5f838383611d8f565b611c1357600073ffffffffffffffffffffffffffffffffffffffff168373ffffffffffffffffffffffffffffffffffffffff1603611bd457806040517f7e273289000000000000000000000000000000000000000000000000000000008152600401611bcb9190612395565b60405180910390fd5b81816040517f177e802f000000000000000000000000000000000000000000000000000000008152600401611c0a929190612d55565b60405180910390fd5b505050565b611c228383611e50565b611c37611c2d611041565b6000858585611531565b505050565b600080600090507a184f03e93ff9f4daa797ed6e38ed64bf6a1f0100000000000000008310611c9a577a184f03e93ff9f4daa797ed6e38ed64bf6a1f0100000000000000008381611c9057611c8f612d26565b5b0492506040810190505b6d04ee2d6d415b85acef81000000008310611cd7576d04ee2d6d415b85acef81000000008381611ccd57611ccc612d26565b5b0492506020810190505b662386f26fc100008310611d0657662386f26fc100008381611cfc57611cfb612d26565b5b0492506010810190505b6305f5e1008310611d2f576305f5e1008381611d2557611d24612d26565b5b0492506008810190505b6127108310611d54576127108381611d4a57611d49612d26565b5b0492506004810190505b60648310611d775760648381611d6d57611d6c612d26565b5b0492506002810190505b600a8310611d86576001810190505b80915050919050565b60008073ffffffffffffffffffffffffffffffffffffffff168373ffffffffffffffffffffffffffffffffffffffff1614158015611e4757508273ffffffffffffffffffffffffffffffffffffffff168473ffffffffffffffffffffffffffffffffffffffff161480611e085750611e078484610be6565b5b80611e4657508273ffffffffffffffffffffffffffffffffffffffff16611e2e83611004565b73ffffffffffffffffffffffffffffffffffffffff16145b5b90509392505050565b600073ffffffffffffffffffffffffffffffffffffffff168273ffffffffffffffffffffffffffffffffffffffff1603611ec25760006040517f64a0ae92000000000000000000000000000000000000000000000000000000008152600401611eb991906121a5565b60405180910390fd5b6000611ed08383600061105b565b9050600073ffffffffffffffffffffffffffffffffffffffff168173ffffffffffffffffffffffffffffffffffffffff1614611f445760006040517f73c6ac6e000000000000000000000000000000000000000000000000000000008152600401611f3b91906121a5565b60405180910390fd5b505050565b604051806060016040528060608152602001600073ffffffffffffffffffffffffffffffffffffffff168152602001600081525090565b6000604051905090565b600080fd5b600080fd5b60007fffffffff0000000000000000000000000000000000000000000000000000000082169050919050565b611fc981611f94565b8114611fd457600080fd5b50565b600081359050611fe681611fc0565b92915050565b60006020828403121561200257612001611f8a565b5b600061201084828501611fd7565b91505092915050565b60008115159050919050565b61202e81612019565b82525050565b60006020820190506120496000830184612025565b92915050565b600081519050919050565b600082825260208201905092915050565b60005b8381101561208957808201518184015260208101905061206e565b60008484015250505050565b6000601f19601f8301169050919050565b60006120b18261204f565b6120bb818561205a565b93506120cb81856020860161206b565b6120d481612095565b840191505092915050565b600060208201905081810360008301526120f981846120a6565b905092915050565b6000819050919050565b61211481612101565b811461211f57600080fd5b50565b6000813590506121318161210b565b92915050565b60006020828403121561214d5761214c611f8a565b5b600061215b84828501612122565b91505092915050565b600073ffffffffffffffffffffffffffffffffffffffff82169050919050565b600061218f82612164565b9050919050565b61219f81612184565b82525050565b60006020820190506121ba6000830184612196565b92915050565b6121c981612184565b81146121d457600080fd5b50565b6000813590506121e6816121c0565b92915050565b6000806040838503121561220357612202611f8a565b5b6000612211858286016121d7565b925050602061222285828601612122565b9150509250929050565b600082825260208201905092915050565b60006122488261204f565b612252818561222c565b935061226281856020860161206b565b61226b81612095565b840191505092915050565b61227f81612184565b82525050565b61228e81612101565b82525050565b600060608301600083015184820360008601526122b1828261223d565b91505060208301516122c66020860182612276565b5060408301516122d96040860182612285565b508091505092915050565b600060208201905081810360008301526122fe8184612294565b905092915050565b60008060006060848603121561231f5761231e611f8a565b5b600061232d868287016121d7565b935050602061233e868287016121d7565b925050604061234f86828701612122565b9150509250925092565b60006020828403121561236f5761236e611f8a565b5b600061237d848285016121d7565b91505092915050565b61238f81612101565b82525050565b60006020820190506123aa6000830184612386565b92915050565b6123b981612019565b81146123c457600080fd5b50565b6000813590506123d6816123b0565b92915050565b600080604083850312156123f3576123f2611f8a565b5b6000612401858286016121d7565b9250506020612412858286016123c7565b9150509250929050565b600080fd5b600080fd5b7f4e487b7100000000000000000000000000000000000000000000000000000000600052604160045260246000fd5b61245e82612095565b810181811067ffffffffffffffff8211171561247d5761247c612426565b5b80604052505050565b6000612490611f80565b905061249c8282612455565b919050565b600067ffffffffffffffff8211156124bc576124bb612426565b5b6124c582612095565b9050602081019050919050565b82818337600083830152505050565b60006124f46124ef846124a1565b612486565b9050828152602081018484840111156125105761250f612421565b5b61251b8482856124d2565b509392505050565b600082601f8301126125385761253761241c565b5b81356125488482602086016124e1565b91505092915050565b6000806000806080858703121561256b5761256a611f8a565b5b6000612579878288016121d7565b945050602061258a878288016121d7565b935050604061259b87828801612122565b925050606085013567ffffffffffffffff8111156125bc576125bb611f8f565b5b6125c887828801612523565b91505092959194509250565b600067ffffffffffffffff8211156125ef576125ee612426565b5b6125f882612095565b9050602081019050919050565b6000612618612613846125d4565b612486565b90508281526020810184848401111561263457612633612421565b5b61263f8482856124d2565b509392505050565b600082601f83011261265c5761265b61241c565b5b813561266c848260208601612605565b91505092915050565b6000806040838503121561268c5761268b611f8a565b5b600083013567ffffffffffffffff8111156126aa576126a9611f8f565b5b6126b685828601612647565b92505060206126c7858286016121d7565b9150509250929050565b600080604083850312156126e8576126e7611f8a565b5b60006126f6858286016121d7565b9250506020612707858286016121d7565b9150509250929050565b6000606082019050818103600083015261272b81866120a6565b905061273a6020830185612196565b6127476040830184612386565b949350505050565b7f4e487b7100000000000000000000000000000000000000000000000000000000600052602260045260246000fd5b6000600282049050600182168061279657607f821691505b6020821081036127a9576127a861274f565b5b50919050565b7f50726f706572747920646f6573206e6f74206578697374000000000000000000600082015250565b60006127e560178361205a565b91506127f0826127af565b602082019050919050565b60006020820190508181036000830152612814816127d8565b9050919050565b60006060820190506128306000830186612196565b61283d6020830185612386565b61284a6040830184612196565b949350505050565b7f4e487b7100000000000000000000000000000000000000000000000000000000600052601160045260246000fd5b600061288c82612101565b91507fffffffffffffffffffffffffffffffffffffffffffffffffffffffffffffffff82036128be576128bd612852565b5b600182019050919050565b60008190508160005260206000209050919050565b60006020601f8301049050919050565b600082821b905092915050565b60006008830261292b7fffffffffffffffffffffffffffffffffffffffffffffffffffffffffffffffff826128ee565b61293586836128ee565b95508019841693508086168417925050509392505050565b6000819050919050565b600061297261296d61296884612101565b61294d565b612101565b9050919050565b6000819050919050565b61298c83612957565b6129a061299882612979565b8484546128fb565b825550505050565b600090565b6129b56129a8565b6129c0818484612983565b505050565b5b818110156129e4576129d96000826129ad565b6001810190506129c6565b5050565b601f821115612a29576129fa816128c9565b612a03846128de565b81016020851015612a12578190505b612a26612a1e856128de565b8301826129c5565b50505b505050565b600082821c905092915050565b6000612a4c60001984600802612a2e565b1980831691505092915050565b6000612a658383612a3b565b9150826002028217905092915050565b612a7e8261204f565b67ffffffffffffffff811115612a9757612a96612426565b5b612aa1825461277e565b612aac8282856129e8565b600060209050601f831160018114612adf5760008415612acd578287015190505b612ad78582612a59565b865550612b3f565b601f198416612aed866128c9565b60005b82811015612b1557848901518255600182019150602085019450602081019050612af0565b86831015612b325784890151612b2e601f891682612a3b565b8355505b6001600288020188555050505b505050505050565b60006040820190508181036000830152612b6181856120a6565b9050612b706020830184612386565b9392505050565b600081905092915050565b6000612b8d8261204f565b612b978185612b77565b9350612ba781856020860161206b565b80840191505092915050565b6000612bbf8285612b82565b9150612bcb8284612b82565b91508190509392505050565b7f596f7520617265206e6f74207468652070726f7065727479206f776e65720000600082015250565b6000612c0d601e8361205a565b9150612c1882612bd7565b602082019050919050565b60006020820190508181036000830152612c3c81612c00565b9050919050565b600081519050919050565b600082825260208201905092915050565b6000612c6a82612c43565b612c748185612c4e565b9350612c8481856020860161206b565b612c8d81612095565b840191505092915050565b6000608082019050612cad6000830187612196565b612cba6020830186612196565b612cc76040830185612386565b8181036060830152612cd98184612c5f565b905095945050505050565b600081519050612cf381611fc0565b92915050565b600060208284031215612d0f57612d0e611f8a565b5b6000612d1d84828501612ce4565b91505092915050565b7f4e487b7100000000000000000000000000000000000000000000000000000000600052601260045260246000fd5b6000604082019050612d6a6000830185612196565b612d776020830184612386565b939250505056fea264697066735822122050e569a9dedfc5c93da270339daf246ed6f58854036ae9b43688c27851a0544164736f6c63430008140033",
    "linkReferences": {},
    "deployedLinkReferences": {}
}